:100000000C9435000C945D000C945D000C945D0024
:100010000C945D000C945D000C945D000C945D00EC
:100020000C945D000C945D000C945D000C945D00DC
:100030000C945D000C945D000C945D000C945D00CC
:100040000C94E9010C945D000C94B7010C9491019F
:100050000C945D000C945D000C945D000C945D00AC
:100060000C945D000C945D001D0311241FBECFEFA6
:10007000D8E0DEBFCDBF11E0A0E0B1E0E2EBF8E0F8
:1000800002C005900D92AC34B107D9F721E0ACE481
:10009000B1E001C01D92A23FB207E1F710E0C5E355
:1000A000D0E004C02197FE010E945104C433D1075F
:1000B000C9F70E9433020C9457040C940000AF92CD
:1000C000BF92CF92DF92EF92FF920F931F93CF9345
:1000D000DF936C017B018B01040F151FEB015E01A7
:1000E000AE18BF08C017D10759F06991D601ED913C
:1000F000FC910190F081E02DC6010995892B79F7DB
:10010000C501DF91CF911F910F91FF90EF90DF908C
:10011000CF90BF90AF900895FC01538D448D252F53
:1001200030E0842F90E0821B930B541710F0CF9691
:10013000089501970895FC01918D828D981761F0C3
:10014000A28DAE0FBF2FB11D5D968C91928D9F5FDA
:100150009F73928F90E008958FEF9FEF0895FC01B9
:10016000918D828D981731F0828DE80FF11D858D6C
:1001700090E008958FEF9FEF0895FC01918D228DFF
:10018000892F90E0805C9F4F821B91098F73992784
:10019000089585E591E00E94BD0021E0892B09F4D6
:1001A00020E0822F089580E090E0892B29F00E94C2
:1001B000C90081110C9400000895FC01A48DA80FC2
:1001C000B92FB11DA35ABF4F2C91848D90E0019699
:1001D0008F739927848FA689B7892C93A089B189B9
:1001E0008C91837080648C93938D848D981306C05A
:1001F0000288F389E02D80818F7D80830895EF92BE
:10020000FF920F931F93CF93DF93EC0181E0888FD0
:100210009B8D8C8D98131AC0E889F989808185FFA0
:1002200015C09FB7F894EE89FF896083E889F98942
:1002300080818370806480839FBF81E090E0DF9144
:10024000CF911F910F91FF90EF900895F62E0B8D97
:1002500010E00F5F1F4F0F731127E02E8C8D8E1152
:100260000CC00FB607FCFACFE889F989808185FFB9
:10027000F5CFCE010E94DD00F1CFEB8DEC0FFD2F0D
:10028000F11DE35AFF4FF0829FB7F8940B8FEA8974
:10029000FB8980818062CFCFCF93DF93EC01888D83
:1002A0008823B9F0AA89BB89E889F9898C9185FDF1
:1002B00003C0808186FD0DC00FB607FCF7CF8C917F
:1002C00085FFF2CF808185FFEDCFCE010E94DD005A
:1002D000E9CFDF91CF9108953FB7F8948091510114
:1002E00090915201A0915301B091540126B5A89B61
:1002F00005C02F3F19F00196A11DB11D3FBFBA2FB8
:10030000A92F982F8827BC01CD01620F711D811D77
:10031000911D42E0660F771F881F991F4A95D1F7FC
:1003200008951F920F920FB60F9211242F933F93AF
:100330004F935F936F937F938F939F93AF93BF93ED
:10034000EF93FF9385E591E00E94DD00FF91EF912F
:10035000BF91AF919F918F917F916F915F914F91DD
:100360003F912F910F900FBE0F901F9018951F92E5
:100370000F920FB60F9211242F938F939F93EF93A9
:10038000FF93E0916501F09166018081E0916B013E
:10039000F0916C0182FD1BC0908180916E018F5F96
:1003A0008F7320916F01821741F0E0916E01F0E0B0
:1003B000EB5AFE4F958F80936E01FF91EF919F91C5
:1003C0008F912F910F900FBE0F901F9018958081E5
:1003D000F4CF1F920F920FB60F9211242F933F93D9
:1003E0008F939F93AF93BF9380914D0190914E0156
:1003F000A0914F01B091500130914C0123E0230FA7
:100400002D3758F50196A11DB11D20934C01809305
:100410004D0190934E01A0934F01B09350018091F4
:10042000510190915201A0915301B0915401019654
:10043000A11DB11D8093510190935201A0935301CE
:10044000B0935401BF91AF919F918F913F912F91A4
:100450000F900FBE0F901F90189526E8230F02965D
:10046000A11DB11DD2CFCF93DF93CDB7DEB7E397F8
:100470000FB6F894DEBF0FBECDBF789484B582600E
:1004800084BD84B5816084BD85B5826085BD85B538
:10049000816085BD80916E00816080936E001092B6
:1004A0008100809181008260809381008091810031
:1004B00081608093810080918000816080938000C2
:1004C0008091B10084608093B1008091B000816020
:1004D0008093B00080917A00846080937A0080914C
:1004E0007A00826080937A0080917A0081608093A4
:1004F0007A0080917A00806880937A001092C1001F
:10050000E0916501F091660182E08083E0916101F4
:10051000F09162011082E0916301F09164018FEC2F
:10052000808310926D01E0916901F0916A0186E08B
:100530008083E0916701F091680180818061808310
:10054000E0916701F0916801808188608083E0918B
:100550006701F0916801808180688083E091670184
:10056000F091680180818F7D808308EE13E00E9406
:100570006C014B015C0190E6C92E9AEED92EE12C5C
:10058000F12C0E946C01681979098A099B09683E5F
:10059000734081059105A8F321E0C21AD108E10852
:1005A000F10888EE880E83E0981EA11CB11CC114CE
:1005B000D104E104F10429F701501109C1F683E3E4
:1005C000E4E0F1E0DE01119601900D928A95E1F7E9
:1005D00061E070E0CB010E94E5038E010F5F1F4FC9
:1005E0006E01F4E3CF0ED11C812C912C5401939415
:1005F000F801F1908F010E949603A50194010E94D9
:10060000EE036F2585E591E00E94FF0042E050E097
:1006100069E471E085E591E00E945F000C151D051D
:1006200039F700E010E001151105E9F30E94C90057
:100630008823C9F30E940000F6CFE5E5F1E01382BC
:10064000128288EE93E0A0E0B0E084839583A683D5
:10065000B7838BE391E09183808385EC90E095876D
:10066000848784EC90E09787868780EC90E0918B7C
:10067000808B81EC90E0938B828B82EC90E0958B69
:10068000848B86EC90E0978B868B118E128E138E66
:10069000148E08958F929F92AF92BF92CF92DF9265
:1006A000EF92FF92CF93DF93EC01688179818A8189
:1006B0009B81611571058105910521F464E279ED55
:1006C0008BE597E02DE133EF41E050E00E94EE032F
:1006D00049015A019B01AC01A7EAB1E40E940D0453
:1006E0006B017C01ACEEB4EFA50194010E941B04E8
:1006F000C60ED71EE81EF91EF7FE06C081E0C81A16
:10070000D108E10880E8F80AC882D982EA82FB822F
:10071000C701B6019F77DF91CF91FF90EF90DF90F7
:10072000CF90BF90AF909F908F9008958F929F929F
:10073000AF92BF92CF92DF92EF92FF926091000151
:100740007091010180910201909103016115710581
:100750008105910521F464E279ED8BE597E02DE1C7
:1007600033EF41E050E00E94EE0349015A019B0142
:10077000AC01A7EAB1E40E940D046B017C01ACEE70
:10078000B4EFA50194010E941B04C60ED71EE81EFB
:10079000F91EF7FE06C081E0C81AD108E10880E81A
:1007A000F80AC0920001D0920101E0920201F09299
:1007B0000301C701B6019F77FF90EF90DF90CF90C4
:1007C000BF90AF909F908F900895609300017093B9
:1007D000010180930201909303010895052E97FB78
:1007E0001EF400940E94050457FD07D00E942004C7
:1007F00007FC03D04EF40C940504509540953095B9
:1008000021953F4F4F4F5F4F08959095809570957C
:1008100061957F4F8F4F9F4F08950E944204A59F7F
:10082000900DB49F900DA49F800D911D11240895EB
:10083000B7FF0C940D040E940D04821B930B0895C6
:10084000A1E21A2EAA1BBB1BFD010DC0AA1FBB1FD4
:10085000EE1FFF1FA217B307E407F50720F0A21B46
:10086000B30BE40BF50B661F771F881F991F1A94B3
:1008700069F760957095809590959B01AC01BD01DD
:10088000CF010895A29FB001B39FC001A39F700D37
:10089000811D1124911DB29F700D811D1124911D88
:1008A0000895EE0FFF1F0590F491E02D0994F89440
:0208B000FFCF78
:1008B20001000000CEFE3DF29EA28BF967CAF12331
:1008C20002E406D59B618F1B50969C03B9B1A944E3
:1008D20037DDFB862729E61C8BD9E902DAE6A5CCAF
:1008E20084A3DCF896DD0F00000000FF005F008C9F
:0C08F200004C01BD009B00AF000D0A008F
:00000001FF
